:020000040800F2
:10000000D8040020050100087F100008D90F00085F
:100010007D10000871010008F912000800000000BE
:100020000000000000000000000000008310000835
:10003000B7010008000000008110000885100008CA
:100040001F0100081F0100081F0100081F01000810
:100050001F0100081F0100081F0100081F01000800
:100060001F0100081F0100081F0100081F010008F0
:100070001F0100081F010008750100088101000828
:100080001F0100081F0100081F0100081F010008D0
:100090001F0100081F0100081F0100081F010008C0
:1000A0001F0100081F0100081F0100081F010008B0
:1000B0001F0100081F0100081F0100081F010008A0
:1000C0001F0100081F0100081F0100081F01000890
:1000D0001F010008ED1200081F0100081F010008A1
:1000E0001F0100081F0100081F010008DFF810D0E1
:1000F00000F02CF80048004739130008AFF30080E7
:10010000D80400200648804706480047FEE7FEE77F
:10011000FEE7FEE7FEE7FEE7FEE7FEE7FEE7FEE7B7
:10012000E7100008ED000008D2B201E000F8012B52
:10013000491EFBD270470022F6E710B513460A4667
:1001400004461946FFF7F0FF204610BD064C074D48
:1001500006E0E06840F0010394E807009847103497
:10016000AC42F6D3FFF7C6FF84130008A4130008BF
:10017000FEE70000014800F06DB800009400002088
:10018000014800F067B800005000002030B590F83A
:1001900040500124AC40C56B6C60046863604368E8
:1001A000102B036803D099600068C26030BD9A606C
:1001B0000068C16030BD704772B6FEE710B590F8B8
:1001C00021100024022903D00421816301243DE091
:1001D00001680A6822F00E020A6001680A6822F0CB
:1001E00001020A601A4A0168914201D1012121E00D
:1001F000174A1432914201D110211BE0144A2832CF
:10020000914201D1891515E0114A3C32914201D148
:1002100089140FE00E4A5032914202D14FF48031DE
:1002200008E00B4A6432914202D14FF4801101E0A0
:100230004FF08071064A083A5160012180F8211080
:10024000002180F82010416B01B18847204610BD85
:10025000080002402DE9F05FC16B0C6801680B6873
:10026000D0F840C0042202FA0CF2494DDFF824A174
:10027000494E4A4FDFF828B1DFF828E122422CD05E
:100280005A072AD50A68920603D40A6822F00402A3
:100290000A600168A94201D1042219E0514501D147
:1002A000402215E0B14202D14FF4806210E0B94221
:1002B00002D14FF480420BE0594502D14FF4802225
:1002C00006E0714502D14FF4800201E04FF08062F8
:1002D0002F4908394A60C16A3BE04FF0020808FA2A
:1002E0000CF818EA040F4FF000094FF0010235D066
:1002F0005FEA837832D50B689B0605D40B6823F040
:100300000A030B6080F821200168A94201D1022272
:1003100019E0514501D1202215E0B14202D14FF43C
:10032000007210E0B94202D14FF400520BE059457F
:1003300002D14FF4003206E0714502D14FF40012B1
:1003400001E04FF00072124908394A6080F82090AD
:10035000816A00291AD0BDE8F05F0847082505FA30
:100360000CF5254212D01B0710D50B6823F00E03A5
:100370000B6090F84010C36B02FA01F15960826380
:1003800080F8212080F82090016BE2E7BDE8F09F23
:10039000080002401C0002403000024044000240BD
:1003A000580002406C00024030B528B308C8134919
:1003B00014221944B1FBF2F18900C1631049816331
:1003C000022141771A6843F6F0718A43D0E900149C
:1003D0002143D0E902452C43214304692143446968
:1003E00021438469214311431960002141630122A3
:1003F00042770177084630BD012030BDF8FFFDBFD0
:100400000000024070B5044690F820000025012845
:100410000CD0012084F8200094F821600020012EE7
:1004200006D084F820000225284670BD022070BD49
:10043000022684F82160A0632068066826F0010681
:1004400006602046FFF7A2FEE06A002820680168E7
:1004500002D041F00E0106E021F0040101602068A5
:10046000016841F00A0101602068016841F0010162
:100470000160D9E72DE9F84FDFF8B891002409F1C0
:10048000040A0AF1040B23460F270BF1040EC9E0FE
:100490000125A5402A40AA427DD1674ED1F804C06B
:1004A000ACEB0608B44532D014DCBCF1030F3AD0F3
:1004B00009DCBCF1000F2AD0BCF1010F1CD0BCF14B
:1004C000020F31D11DE0BCF1110F17D0BCF1120F9A
:1004D0002AD119E0B8F5881F19D006DCB8F5803F9D
:1004E00015D0B8F5801F1FD111E0B8F5001F0ED050
:1004F000B8F5041F18D10AE0CB6815E0CB681B1DC6
:1005000012E0CB6808330FE0CB680C330CE08B684B
:100510002BB1012B4FF0080303D0456104E0042305
:1005200002E0056100E00023FF2A01D8064601E051
:1005300000F104064FEA840501D9A5F12005D6F89B
:10054000008007FA05FC28EA0C0803FA05F548EADA
:100550000508C6F800804D68ED0062D5374DAE69DC
:1005600046F00106AE61AD6924F0030605F0010511
:100570000095334D06EB050CDCF80850A607360F46
:1005800007FA06F825EA0805DFF8B880404503D1E8
:100590004FF0000817E044E0DFF8AC80404502D19E
:1005A0004FF001080FE0DFF8A480404502D14FF082
:1005B000020808E0DFF89880404502D14FF00308B8
:1005C00001E04FF0040808FA06F848EA0508CCF8FC
:1005D00008804D68D9F80060ED034D4601D51643FB
:1005E00000E096432E604D68DAF80060AD03554692
:1005F00001D5164300E096432E604D68DBF800609D
:10060000ED025D4601D5164300E096432E604D682D
:10061000DEF80060AD02754601D5164300E0964352
:100620002E60641C0D682A46E5407FF431AFBDE8BA
:10063000F88F00000004014000001110001002407B
:100640000000014000080140000C01400010014082
:10065000001401400148806870470000000000203D
:1006600002488168027811448160704700000020D0
:10067000074810B5016841F010010160032000F047
:1006800075F8002000F006F800F024F8002010BDF6
:100690000020024070B50D4D04464FF47A71287861
:1006A000B1FBF0F00A490968B1FBF0F000F0ECFA98
:1006B00048B9102C07D200222146501E00F036F80F
:1006C00000206C6070BD012070BD000000000020A3
:1006D0000C0000200C4808B5816941F001018161DE
:1006E000816901F001010091C16941F08051C1614E
:1006F000C06900F0805000900448416821F0E0613A
:1007000041F00071416008BD00100240000001404E
:10071000002809DB00F01F02012191404009800000
:1007200000F1E020C0F8001170470000F0B40E4B5B
:100730001B680C46C3F30223C3F10705042D00D93F
:100740000425191D072901D2002300E0DB1E012624
:1007500006FA05F1491E214099409E40761E16403A
:100760003143F0BC00F0C9BD0CED00E0064900F0DB
:10077000070208684FF6FF03184040EA0220034AC8
:1007800010430860704700000CED00E00000FA051F
:100790002DE9F0470F46050061D0434E306800F068
:1007A0000700B84209D2306820F0070038433060B3
:1007B000306800F00700B84251D128683B4C8107EF
:1007C00012D5400703D5606840F4E0606060287887
:1007D000000703D5606840F4605060606068A968F5
:1007E00020F0F000084360602878C00728D06868CF
:1007F000012810D02168022810D0890700292EDA9C
:10080000616821F0030101436160FFF723FF804627
:1008100041F288390DE021688903EFE78901EDE7AE
:10082000FFF718FFA0EB0801494502D90320BDE8F6
:10083000F0876068696800F00C00B0EB810FEFD1C1
:10084000306800F00700B8420BD9306820F007008C
:1008500038433060306800F00700B84201D0012012
:10086000E5E72878400705D56068E96820F4E0608E
:10087000084360602878000706D56068296920F47D
:10088000605040EAC100606000F038F86168084AD2
:10089000C1F30311515CC84006490860064800686E
:1008A000FFF7F8FE0020C2E70020024000100240DF
:1008B0006C1300080C0000200400002004480549C7
:1008C00000684968044AC1F30221515CC84070477E
:1008D0000C000020001002407C1300080448054969
:1008E00000684968044AC1F3C221515CC84070479E
:1008F0000C000020001002407C13000812A185B0FB
:100900000FC98DE80F0014A0144A006804905168C4
:10091000134801F00C03042B10D0082B0ED1C1F3A7
:100920008343C9031DF803000AD5516804AAC1F323
:100930004041515C0A4A5043B0FBF1F005B07047AA
:1009400008494843FAE700000203040506070809BE
:100950000A0B0C0D0E0F10100102000000100240D7
:1009600000127A0000093D002DE9F84F040070D014
:100970002078C04DC00749D06868C0F381000128C5
:1009800007D06868C0F38100022809D16868C003F5
:1009900006D52868800339D560680028E7D035E09F
:1009A0006068B0F5803F0BD010B1B0F5A02F11D02A
:1009B000286820F480302860286820F4802002E035
:1009C000286840F480302860606890B1FFF742FEEC
:1009D00006460AE0286840F480202860F0E700BF5F
:1009E000FFF738FE801B642873D828688003F7D58A
:1009F0000CE0FFF72FFE064605E000BFFFF72AFEDA
:100A0000801B6428F0D828688003F7D420789A4E99
:100A100080074FF001094FF0000839D5686810F0E1
:100A20000C0F07D06868C0F38100022809D16868FC
:100A3000C00306D42868800714D52069012808D18E
:100A400010E02069B0B1C6F80090FFF703FE07463A
:100A500005E00AE1FFF7FEFDC01B0228C4D82868A4
:100A60008007F7D52868616920F0F80040EAC100E6
:100A700028600DE0C6F80080FFF7ECFD074604E0B3
:100A8000FFF7E8FDC01B022823D828688007F7D4A9
:100A9000207800072CD57948A169D9B1C0F8009019
:100AA000FFF7D8FD074604E0FFF7D4FDC01B02287E
:100AB0000FD8686A8007F7D571484FF4FA5100687B
:100AC000B0FBF1F0009000BF0098411E0091FAD2F7
:100AD0000EE080E0C0F80080FFF7BCFD074604E0B0
:100AE000FFF7B8FDC01B022875D8686A8007F7D4E5
:100AF0002078400760D5E8690027C00008D4E8697D
:100B000040F08050E861E869012700F080500090D3
:100B10005C480168C90513D40168834641F48071BB
:100B20000160FFF797FD824606E000BFFFF792FDE8
:100B3000A0EB0A0064284ED8DBF80000C005F5D50C
:100B4000E06801280AD008B1052813D0286A20F0EF
:100B500001002862286A20F0040002E0286A40F0C0
:100B600001002862E06841F2883B98B1FFF772FD0E
:100B700082460BE0286A40F004002862EEE700BFDE
:100B8000FFF768FDA0EB0A0159455AD8286A80078B
:100B9000F6D50CE0FFF75EFD824605E0FFF75AFD53
:100BA000A0EB0A0159454CD8286A8007F6D41FB13A
:100BB000E86920F08050E861E06988B36968C1F3B2
:100BC0008101022944D00228C6F8608004D0FFF7D2
:100BD00041FD044638E034E0FFF73CFD074604E001
:100BE000FFF738FDC01B02282BD828688001F7D4F6
:100BF000206AB0F5803F05D16868A16820F4003014
:100C000008436860D4E908010843696821F4741155
:100C100008436860C6F86090FFF71CFD044606E0D4
:100C200025E000BFFFF716FD001B022809D8286841
:100C30008001F7D51BE000BFFFF70CFD001B022869
:100C400002D90320BDE8F88F28688001F4D40EE0B3
:100C50000128F7D06868226A00F48031914204D1FB
:100C6000616A00F47010884201D00120EAE7002098
:100C7000E8E70000001002400000424280044242C7
:100C80000C0000200070004010B5401EB0F1807FC5
:100C900001D3012010BD4FF0E02460610F216017E7
:100CA00000F02BFB0020A06107202061002010BD78
:100CB0007047000070B5026804461068D168536937
:100CC00010F00F0F52D003F0010501F490762E437F
:100CD0005FD0C20705D0CA0503D5E26B42F001021E
:100CE000E263420705D5DA0703D0E26B42F0020265
:100CF000E263820705D5DA0703D0E26B42F0040213
:100D0000E263020707D501F020022A4303D0E26B19
:100D100042F00802E263E26B002A33D0800604D579
:100D2000880602D5204600F03FFA20684069E16B52
:100D3000C0F38010090700D428B3204600F01DFA44
:100D40002068416949061AD5416921F04001416195
:100D5000606BA0B12D494163606BFFF72FFA00284B
:100D600010D0606B416BBDE870400847830610D51A
:100D70008B060ED52046BDE8704000F015BA20461F
:100D8000FFF796FF70BD2046FFF792FF0020E0635B
:100D900070BD03062BD50B0629D594F83900212800
:100DA000F6D1A068B0F5805F01D12069B0B1206AAA
:100DB000411C2162216800784860E08C401E0004DC
:100DC000000CE084E4D12068C16821F08001C1609A
:100DD0002068C16841F04001C16070BD206A008890
:100DE000C0F308005060206A801C2062E5E74006DE
:100DF000F3D54806F1D5D168204621F04001D160F5
:100E0000202184F8391000F0E5F870BDE9100008E1
:100E100070B5040004D094F83900002510B106E044
:100E2000012070BD84F83850204600F023F82420BB
:100E300084F839002068C16821F40051C16020465F
:100E400000F0F8F92068016921F4904101612068FF
:100E5000416921F02A0141612068C16841F40051D3
:100E6000C160E563202084F8390084F83A0000204E
:100E700070BD0000F0B585B00024064600940194D2
:100E80000294039400682D49884254D12C4881690A
:100E900041F480418161816901F48041049181695B
:100EA00041F0040181618069264D00F00400049046
:100EB0004FF40070009002200190032003906946D7
:100EC0002846FFF7D7FA2815CDE9000469462846D9
:100ED0000294FFF7CFFA1D4D1B488027C5E9000497
:100EE000C5E902472C616C61AC612846EC61FFF7F3
:100EF0005BFA08B1FFF760F975636E62134D124833
:100F00004435143801C5102091C5104845F81049E2
:100F100044306C61AC61EC61FFF746FA08B1FFF751
:100F20004BF935630022114625206E62FFF7FEFB68
:100F30002520FFF7EDFB05B0F0BD000000380140B3
:100F400000100240000801405800024050000020FC
:100F50007047000070B5044690F83900202830D161
:100F600069B362B394F8380001282AD0012084F8CC
:100F700038002162A284E2840025E563212084F800
:100F80003900236B10489862236B1048D862236B9A
:100F90000F481863206B134645632668206B321D8B
:100FA000FFF730FA21686FF04000086084F838508D
:100FB0002068416941F080014161002070BD01203D
:100FC00070BD022070BD00004311000871110008BF
:100FD000F910000870477047FEE700000D4808B59B
:100FE000416941F0010141614069002200F00100C6
:100FF000009011460E20FFF799FB0E20FFF788FBAB
:10100000002211460F20FFF791FBBDE808400F209A
:10101000FFF77EBB00100240094808B5816941F026
:1010200020018161816901F020010091816941F015
:1010300004018161806900F00400009008BD000097
:10104000001002400C4810B50A4901604FF4E1312C
:101050004160002181600C22C160C0E904128161FD
:10106000C161FFF7D5FE002803D0BDE81040FFF7AF
:10107000A3B810BD0038014010000020FEE7FEE7D5
:1010800070477047FFF7ECBA30B58FB0282168463B
:10109000FFF751F814210AA8FFF74DF801210804C1
:1010A000CDE900100024029402250491CDE90750F7
:1010B0004FF4E01009906846FFF756FC08B172B68D
:1010C000FEE70F20CDE90A054FF48060CDE90C4022
:1010D00002210AA80E94FFF75BFB002801D072B62C
:1010E000FEE70FB030BD704710B5406A0021C185E2
:1010F000C184FFF7DDFD10BD70B5446A206840690A
:1011000094F83910C0F3C0100025212904D118B17A
:10111000E584204600F03FF82068406994F83A10D2
:10112000C0F38010222904D118B1E585204600F0D3
:1011300024F8E06B40F01000E0632046FFF7B8FDB4
:1011400070BD10B50146406A0968096889060CD46B
:101150000021C18401684A6922F080024A61006866
:10116000C16841F04001C16010BDFFF733FF10BD01
:1011700010B5406AFFF72FFF10BD0168CA6822F45E
:101180009072CA6001684A6922F001024A61202116
:1011900080F83A1070470168CA6822F0C002CA603D
:1011A000202180F83910704710B590F83A102229A4
:1011B00001D0022010BD82684FF480539A4201D1C1
:1011C000016921B1816A9A421BD04AB10AE00268E2
:1011D000816A5268C2F308020A80816A891C08E0A9
:1011E000026972B10268526802F07F020A70816A75
:1011F000491C8162C18D491E0904090CC18503D0B7
:1012000016E002685268F1E70168CA6822F020021D
:10121000CA600168CA6822F48072CA6001684A69BB
:1012200022F001024A61202180F83A10FFF790FE77
:10123000002010BD70B5044600680169E26821F421
:101240004051114301612169A06808436169084365
:101250002168CA6841F20C639A430243CA6020685D
:101260004169A26921F44071114341611E4920681E
:10127000884202D1FFF732FB01E0FFF71FFB00EBD2
:10128000C00101EB0012606864218000B2FBF0F342
:10129000B3FBF1F36FF018067343B2FBF0F5B2FB4A
:1012A000F0F605EB8305322303EB0515B5FBF1F5ED
:1012B000B6FBF1F605F0F00505EB0615B2FBF0F60E
:1012C000B2FBF0F0B0FBF1F06FF01802504306EB08
:1012D000800003EB0010B0FBF1F0216800F00F007C
:1012E0002844886070BD0000003801400148FFF7C5
:1012F000E1BC000010000020FEE70907090E0028ED
:1013000004DB00F1E02080F80014704700F00F00CB
:1013100000F1E02080F8141D704702E008C8121F99
:1013200008C1002AFAD170477047002001E001C1CE
:10133000121F002AFBD1704708B531208DF800003C
:1013400030208DF80100FFF793F9FFF79DFEFFF7BE
:1013500063FEFFF743FEFFF775FE0222694602486F
:10136000FFF7F8FDF9E70000100000200000000082
:101370000000000001020304060708090000000045
:1013800001020304A4130008000000201000000064
:101390001A130008B413000810000020C80400004D
:1013A0002A130008010000001000000000000000E7
:0413B0000024F40021
:04000005080000ED02
:00000001FF
