:020000040800F2
:10000000E804002049010008F90A0008490800082E
:10001000F50A0008290700080B100008000000007E
:10002000000000000000000000000000AD0D00080E
:100030002D07000800000000890D0008C10E00080F
:100040006301000863010008630100086301000800
:1000500063010008630100086301000863010008F0
:1000600063010008630100086301000863010008E0
:1000700063010008630100086301000863010008D0
:1000800063010008630100086301000863010008C0
:1000900063010008630100086301000863010008B0
:1000A00063010008630100086301000863010008A0
:1000B0006301000863010008630100086301000890
:1000C0006301000863010008630100086301000880
:1000D00063010008250F00086301000863010008A0
:1000E0006301000863010008630100086301000860
:1000F0006301000863010008630100086301000850
:10010000630100086301000863010008630100083F
:10011000630100086301000863010008630100082F
:10012000630100086301000863010008630100081F
:10013000DFF810D000F0E6FA00480047E5110008AB
:10014000AFF30080E80400200648804706480047D7
:10015000FEE7FEE7FEE7FEE7FEE7FEE7FEE7FEE777
:10016000FEE7FEE7C50E0008310100082DE9FE4F4D
:10017000804681EA0300C00F0C46009021F0004148
:1001800023F00045B8EB0200A94105D240462146C4
:1001900090461C460B46024623F00040104347D0D1
:1001A000270DC7F30A00C3F30A510290401A0190C9
:1001B00040286BDAC3F3130040F4801B009892468A
:1001C00020B10023D2EB030A63EB0B0B01985946D5
:1001D000C0F14002504600F0B7F906460D465046C1
:1001E0005946019A00F0CFF910EB08006141002454
:1001F00087EA115284EAE7731A4340D0009A62B347
:10020000019A012A4FEA075215DC001B61EB02013B
:100210004FF0004202EA0752CDE90042001C41F5CE
:10022000801132462B4600F006FA03B0BDE8F08F8D
:1002300040462146F9E7001B61EB0201001C41F535
:10024000801300185B412018A2F5001747EB03014B
:1002500040EAD570B6196D4111E06D084FEA3606D7
:1002600045EAC0754FEA0752001B61EB0201001C12
:1002700041F5801149084FEA3000001951413246DA
:100280002B4603B0BDE8F04F00F0C6B9009801223C
:1002900040000023D0EB020263EBE073009821469C
:1002A0004FEAE074B8EB000061EB0401E9E783F08A
:1002B00000435BE781F0004158E72DE9FE4F81EAFA
:1002C000030404F0004421F0004100944FF0000BBF
:1002D00023F0004350EA01045ED052EA03045BD0ED
:1002E000C3F30A54C1F30A552C44A4F2F334019425
:1002F000A0FB0254C1F3130141F48011C3F31303B3
:1003000043F4801301FB024400FB034E840A970A66
:1003100044EA815447EA8357A4FB076802958D0A93
:1003200005FB07854FEA932C04FB0C542705029D1F
:100330004FEA065847EA1637B5EB08056EEB070C8F
:10034000870E920E47EA811742EA8312A7FB020149
:10035000B6EB0B0164EB00042B0D43EA0C335E1883
:1003600044EB1C50DA465146E7FB0201C5F3130487
:100370004FEA0B3343EA14534FEA0432019C43EA39
:100380000603A4F10C040294009CCDE900B400F033
:1003900052F903B0BDE8F08F00200146F9E72DE9DE
:1003A000F04D81EA030404F0004B21F000451446AF
:1003B0004FF0000A23F0004150EA050220D054EA31
:1003C00001021DD0C5F30A570246C5F31303C1F35A
:1003D0001300C1F30A5640F4801543F48013A7EBD1
:1003E0000608101BD64608F2FD3873EB050002D351
:1003F00008F1010801E092185B41B8F1000F03DA3F
:1004000000200146BDE8F08D00204FF48011064623
:1004100084460EE0171B73EB050705D3121B63EB35
:10042000050306434CEA010C49084FEA30009218D4
:100430005B4150EA0107EDD152EA030012D082EA93
:10044000040083EA0501084305D0101BAB4106D226
:100450000122002306E000224FF0004302E06FF08B
:10046000010253101AEB06004CEB085110EB0A0086
:1004700041EB0B01BDE8F04D00F0CEB80EB5C10F59
:1004800080EAE0700844CA07002140F233438DE857
:100490000E000A460B4600F0CEF803B000BD0EB5C4
:1004A00040F2334102910021CDE900110A460B468A
:1004B00000F0C1F803B000BDC1F30A5210B5C1F39A
:1004C000130140F2FF3341F480119A4201DA002017
:1004D00010BD40F233439A42A2F2334203DC52424F
:1004E00000F041F810BD904010BD00F0004230F027
:1004F00000400AD0C10D01F56071C0F3160042EA58
:100500000151C2084007114370470020014670475F
:1005100001F0004330B421F0004150EA010206D05E
:100520000A0DA2F56072C1F31301002A02DC30BC8F
:1005300000207047440F44EAC104C100E01830BCF9
:1005400000EBC25000F031B8202A04DB203A00FA58
:1005500002F1002070479140C2F1200320FA03F31A
:10056000194390407047202A04DB203A21FA02F018
:100570000021704721FA02F3D040C2F120029140DD
:10058000084319467047202A06DBCB17203A41FA68
:1005900002F043EAE07306E041FA02F3D040C2F110
:1005A000200291400843194670470029A8BF7047B0
:1005B000401C490008BF20F00100704710B4B0FA99
:1005C00080FC00FA0CF050EA010404BF10BC704734
:1005D00049B1CCF1200421FA04F411FA0CF118BF4E
:1005E000012121430843A3EB0C01CB1D4FEA00611D
:1005F0004FEA102042BF002010BC704700EBC350F0
:1006000010440029A4BF10BC7047401C490008BF1B
:1006100020F0010010BC704710B5141E73F10004E7
:1006200008DA401C41F1000192185B411A4301D1E4
:1006300020F0010010BD2DE9F04D92469B4611B10E
:10064000B1FA81F202E0B0FA80F220329046FFF770
:100650007BFF04460F4640EA0A0041EA0B0153467D
:100660005A46084313D0114653EA010019D0C8F185
:1006700040025046FFF777FF05460E465046594662
:100680004246FFF761FF084305D0012004E0204601
:100690003946BDE8F08D0020054346EAE0762C435C
:1006A00037430A986305E40AA0EB08000022FD0A1C
:1006B00044EA47540A3002D500200146E9E7010523
:1006C00010196941DDE9084500196941BDE8F04D9F
:1006D000A2E7000030B5041E71F1000404DB4FF006
:1006E0000044404264EB0101141E73F1000405DB79
:1006F0001C464FF00043524263EB0403994208BF8B
:10070000904230BD064C074D06E0E06840F0010322
:1007100094E8070098471034AC42F6D3FFF70CFD7D
:10072000B8130008D813000800BFFEE770472DE992
:10073000F041024600250026002000230024002767
:1007400091F803C00CF00F0591F803C00CF0100CE9
:10075000BCF1000F03D091F802C04CEA050591F8F6
:1007600000C0BCF1000F31D0146800202BE04FF026
:10077000010C0CFA00F3B1F800C00CEA03069E422B
:1007800020D183004FF00F0C0CFA03F7BC4305FA9D
:1007900003FC4CEA040491F803C0BCF1280F06D115
:1007A0004FF0010C0CFA00FCC2F814C00AE091F8FA
:1007B00003C0BCF1480F05D14FF0010C0CFA00FC4E
:1007C000C2F810C0401C0828D1D31460B1F800C092
:1007D000BCF1FF0F34DD546800202EE000F1080C5E
:1007E0004FF0010808FA0CF3B1F800C00CEA030658
:1007F0009E4221D183004FF00F0C0CFA03F7BC434B
:1008000005FA03FC4CEA040491F803C0BCF1280F7C
:1008100005D100F1080C08FA0CF8C2F8148091F820
:1008200003C0BCF1480F07D100F1080C4FF00108DC
:1008300008FA0CF8C2F81080401C0828CED3546087
:10084000BDE8F0810161704700BFFEE710B50020F0
:100850000F4908600F48006820F070400D4908609B
:100860000846006840F04050086000200A49C1F87E
:100870009C01022000F022FC0120054908600220B2
:1008800000F01CFC00200449C1F8980110BD0000D4
:1008900098812142000C01400080214208B50121CD
:1008A000082000F073FAC020ADF8000010208DF889
:1008B000030003208DF8020069460448FFF737FF64
:1008C0004FF440710148FFF7BDFF08BD000C014027
:1008D00010B500200F4908600F48006820F07040F4
:1008E0000D4908600846006840F04050086001204B
:1008F0000A49C1F89C01022000F0E0FB01200549F3
:100900000860022000F0DAFB00200449C1F89801D9
:1009100010BD000098812142000C0140008021425E
:1009200070B5054600241748006820F0704015494E
:1009300008600846006840F000400860002616E0A5
:10094000002011490860022000F0B8FB01200F4987
:10095000C1F898016006040E0B487C38006808B1A5
:10096000601CC4B2012000F0A9FB701CC6B2082EA6
:10097000E6DB15B9FFF7ACFF01E0FFF767FF2046A4
:1009800070BD0000000C014098812142008021428E
:1009900070B504461548006820F07040134908609F
:1009A0000846006840F04050086000201049086088
:1009B000002517E0E0090E49091D08606006040ED5
:1009C000022000F07BFB01200A49C1F898010220B7
:1009D00000F074FB002006490860022000F06EFB66
:1009E000681CC5B2082DE5DB70BD0000000C01409D
:1009F000988121420080214210B50F48006820F004
:100A000070400D4908600846006840F0405008609A
:100A100001200A4908600A49C1F89801042000F041
:100A20004DFB002005490860042000F047FB002032
:100A30000349C1F8980110BD000C01409C8121427E
:100A40000080214210B50F48006820F070400D4929
:100A500008600846006840F04050086000200A49DD
:100A600008600A49C1F89C01042000F027FB01201E
:100A7000054908600549C1F89C01042000F01EFBEF
:100A800010BD0000000C01409881214200802142ED
:100A900010B500241448006820F070401249086026
:100AA0000846006840F00040086001200F490860D7
:100AB00000F004FB01200E49C1F8980100F0FEFA95
:100AC00007E0601CC4B2FA2C03DDFFF7BBFF012076
:100AD00010BD0648803800680028F2D10349091F7C
:100AE000086000BFF4E70000000C01409C81214237
:100AF0000080214200BFFEE7704700002DE9FF4F54
:100B000085B00D4614469946DDF848A000200490B3
:100B1000B9F1000F06D0B9F1010F1CD0B9F1020FE5
:100B200018D156E02046FFF7BAFC554A554BCDE99F
:100B30000001FFF7C2FB0022534BCDE90201FFF792
:100B400015FB0746FFF7B8FC04900021DDE90420FF
:100B500000F0FCFB8FE02046FFF7A1FC484A494B20
:100B6000CDE90001FFF7A9FB07460022464BFFF73E
:100B7000FDFACDE90201FFF79FFC04900021DDE9B9
:100B8000042000F0E3FBAC4211DD601BFFF776FCB4
:100B900007463B4A3D4BFFF790FBCDE90201FFF7CB
:100BA0008BFC1FFA80FB584600F062FA10E0281B0D
:100BB000FFF764FC0746324A344BFFF77EFBCDE972
:100BC0000201FFF779FC1FFA80FB584600F050FA4B
:100BD00051E0AC4226DD2E4621E03046FFF75FFCB7
:100BE0000746274A274BFFF768FB0022264BCDE933
:100BF0000001FFF7BBFACDE90201FFF75DFC0490AD
:100C00000021DDE9042000F0A1FB022000F030FA11
:100C1000FA210AFB01F000F051FA701CC6B2A6429C
:100C2000DBDD27E0A54225DD2E4621E03046FFF73B
:100C300036FC0746124A134BFFF73FFB0022124BCC
:100C4000CDE90001FFF792FACDE90201FFF734FC8C
:100C500004900021DDE9042000F078FB022000F080
:100C600007FAFA210AFB01F000F028FA701EC6B25A
:100C7000A642DBDA00BF00BF09B0BDE8F08F00007C
:100C80009A9999999999014000C0634099990540B2
:100C90002DE9F84F83468A4600200090FFF7FEFDBD
:100CA0000021084600F071FB584600F0E9FA504672
:100CB000FFF7F5FB80464FF03332314BFFF7FDFA7B
:100CC000064600222F4BFFF751FA0446FFF7F4FBCC
:100CD000009000210846009A00F038FB0021012016
:100CE000009A00F033FB00210220009A00F02EFB56
:100CF00000210320009A00F029FB00210420009A23
:100D000000F024FB00210520009A00F01FFB0021C9
:100D10000620009A00F01AFB00210720009A00F03C
:100D200015FB00210820009A00F010FB002109208B
:100D3000009A00F00BFB00210A20009A00F006FB4D
:100D400000210B20009A00F001FB00210C20009AEA
:100D500000F0FCFA00210D20009A00F0F7FA0021C3
:100D60000E20009A00F0F2FA00210F20009A00F005
:100D7000EDFA4FF4FA7000F07BF9BDE8F88F00004F
:100D800033330340002062407047000029B1064A17
:100D900092690243044B9A6104E0034A92698243D8
:100DA000014B9A617047000000100240704710B577
:100DB00000F002F810BD00000CB50020019000907A
:100DC0003348006840F480303149086000BF304843
:100DD000006800F4003000900198401C01900098D9
:100DE00018B90198B0F5A06FF1D12948006800F456
:100DF000003010B10120009001E000200090009828
:100E0000012843D12348006840F0100021490860C0
:100E10000846006820F0030008600846006840F0BB
:100E2000020008601A48406819494860084640684E
:100E300048600846406840F4806048600846406862
:100E400020F47C1048600846406840F4E810486090
:100E50000846006840F08070086000BF0C480068D9
:100E600000F000700028F9D00948406820F0030025
:100E7000074948600846406840F00200486000BFEB
:100E80000348406800F00C000828F9D10CBD0000B0
:100E90000010024000200240042808D14FF0E02159
:100EA000096941F004014FF0E022116107E04FF0C1
:100EB000E021096921F004014FF0E022116170473F
:100EC0007047000010B51348006840F00100114958
:100ED000086008464068104908400E4948600846C6
:100EE00000680E4908400B4908600846006820F475
:100EF000802008600846406820F4FE0048604FF4F7
:100F00001F008860FFF753FF4FF00060044908603E
:100F100010BD0000001002400000FFF8FFFFF6FEC9
:100F200008ED00E010B540F225511D4800F03EF8F4
:100F300010B31B4800F064F8C4B21A48008800F4EB
:100F40000040C8B91748008800F4804060B10A2CFE
:100F500003D000201349088020E01248008840F4A4
:100F600000401049088019E00D2C06D10D4800887A
:100F700040F480400B49088010E00A480088C0F324
:100F80000D0009490C5407480088401C0549088099
:100F900008460088C72801DD0020088010BD000039
:100FA00000380140080000202000002070B50246F3
:100FB000002400230025002040F66A16B14200D12B
:100FC00000BFC1F3421501F01F03012606FA03F327
:100FD000012D02D19689334006E0022D02D1168AF6
:100FE000334001E0968A33400C12012606FA04F4DD
:100FF0001688344013B10CB1012000E0002070BD10
:1010000001468888C0F30800704700BFFEE702E091
:1010100008C8121F08C1002AFAD170477047002083
:1010200001E001C1121F002AFBD1704710B56FF01B
:101030000400FFF731FF0A4800680A49B0FBF1F0ED
:10104000094908700846007800EB4001C1EBC01068
:101050004FF6FF7101EAC0000449088010BD00008E
:101060000C00002000127A00000000200200002086
:101070000146114A12884A434FF0E0235A61002288
:101080009A611A46126942F001021A6100BF4FF0DC
:10109000E022106900F001021AB100F48032002A47
:1010A000F5D04FF0E022126922F001024FF0E02368
:1010B0001A6100229A617047020000200146114A1D
:1010C00012784A434FF0E0235A6100229A611A468F
:1010D000126942F001021A6100BF4FF0E02210696C
:1010E00000F001021AB100F48032002AF5D04FF06E
:1010F000E022126922F001024FF0E0231A6100227F
:101100009A617047000000202DE9F041C1F30A52B6
:10111000A2F2FF362F4A304B0D460446142E2FDA2A
:10112000002E12DAFFF722F800221346FFF7D2FA58
:101130004CD2002DA4BF0024254647DA25F00040FC
:10114000204318BF254D41D018E0DFF894C02CFA99
:1011500006F705EA070C5CEA040C08BFBDE8F0815D
:10116000FFF704F800221346FFF7B4FA2ED2002D41
:1011700003DA4FF48010F0400544BD43002425E01D
:10118000332EC8BFBDE8F081A6F1140C4FF0FF3735
:1011900027FA0CF73C4208BFBDE8F081FFF78AF858
:1011A00000221346FFF796FA10D2002D0DDA142E06
:1011B00008BF6D1C09D0C6F13400012101FA00F00E
:1011C0002044A04238BF6D1C0446BC43294620463B
:1011D000BDE8F0819C7500883CE4377E0000F0BFDC
:1011E000FFFF0F0008B5FFF721FF5A211448FFF752
:1011F0004FFD23E00A200123B4220021009018466D
:10120000FFF77CFC4FF4FA60FFF732FF0A2001235E
:10121000B422002100900220FFF770FC0A20012375
:101220000022B42100901846FFF768FC0A20012331
:101230000022B42100900220FFF760FCDAE70000F2
:101240000000704270B50446FFF7D6FB8020FFF720
:101250009FFBFFF71DFC2046FFF79AFBFFF718FCEA
:10126000FFF7CAFB8120FFF793FBFFF711FC00207B
:10127000FFF756FB0546FFF7E5FB284670BD00006B
:101280002DE9FC5F83465846FFF72FF98046294A2F
:10129000294BFFF712F80646FFF73AF98346002478
:1012A000264D0022264B20462946FFF778F80446B3
:1012B0000D465846FFF719F9064632460B462046BA
:1012C0002946FFF76CF804460D4600221D4B2046C8
:1012D0002946FEF7ECFF04460D4600221A4B204635
:1012E0002946FEF743FF0646FFF70EFF8046FFF74D
:1012F000E3F8C0B201900020FFF7A4FF82460AF095
:101300007F0040F0100000900020009900F03DF8B0
:10131000FE20019900F039F85146002000F035F820
:101320000220FFF7A5FE4AF0A101002000F02DF8F1
:10133000BDE8FC9F713D0AD7A370ED3F84D777418C
:101340000000B0400000F03F0000E03F70B50446F0
:101350000D461646E9B2A200921DD0B200F015F873
:10136000A100C91DC8B2C5F3072100F00EF8F1B203
:10137000A2000832D0B200F008F8A1000931C8B2CA
:10138000C6F3072100F001F870BD70B505460C46A4
:10139000FFF732FB8020FFF7FBFAFFF779FB2846C7
:1013A000FFF7F6FAFFF774FB2046FFF7F1FAFFF7B5
:1013B0006FFBFFF747FB70BDD8130008000000204B
:1013C000200000000E100008F81300082000002084
:1013D000C80400001E10000800000000000000000B
:1013E0000000000000A24A0400000000000000000D
:0813F0000102030406070809CD
:0400000508000131BD
:00000001FF
